{
  "_format": "hh-sol-artifact-1",
  "contractName": "FundsManager",
  "sourceName": "contracts/FundsManager.sol",
  "abi": [
    {
      "inputs": [
        {
          "internalType": "address",
          "name": "_withdrawalPerson",
          "type": "address"
        },
        {
          "internalType": "uint256",
          "name": "_withdrawalLimit",
          "type": "uint256"
        }
      ],
      "stateMutability": "nonpayable",
      "type": "constructor"
    },
    {
      "inputs": [
        {
          "internalType": "address",
          "name": "newPerson",
          "type": "address"
        }
      ],
      "name": "changeWithdrawalPerson",
      "outputs": [],
      "stateMutability": "nonpayable",
      "type": "function"
    },
    {
      "inputs": [],
      "name": "depositFunds",
      "outputs": [],
      "stateMutability": "payable",
      "type": "function"
    },
    {
      "inputs": [],
      "name": "enableAutoLimit",
      "outputs": [],
      "stateMutability": "nonpayable",
      "type": "function"
    },
    {
      "inputs": [],
      "name": "getBalance",
      "outputs": [
        {
          "internalType": "uint256",
          "name": "",
          "type": "uint256"
        }
      ],
      "stateMutability": "view",
      "type": "function"
    },
    {
      "inputs": [],
      "name": "getWithdrawalLimit",
      "outputs": [
        {
          "internalType": "uint256",
          "name": "",
          "type": "uint256"
        }
      ],
      "stateMutability": "view",
      "type": "function"
    },
    {
      "inputs": [],
      "name": "isAutoLimit",
      "outputs": [
        {
          "internalType": "bool",
          "name": "",
          "type": "bool"
        }
      ],
      "stateMutability": "view",
      "type": "function"
    },
    {
      "inputs": [
        {
          "internalType": "uint256",
          "name": "newLimit",
          "type": "uint256"
        }
      ],
      "name": "setWithdrawalLimit",
      "outputs": [],
      "stateMutability": "nonpayable",
      "type": "function"
    },
    {
      "inputs": [],
      "name": "superAdmin",
      "outputs": [
        {
          "internalType": "address",
          "name": "",
          "type": "address"
        }
      ],
      "stateMutability": "view",
      "type": "function"
    },
    {
      "inputs": [],
      "name": "withdrawAll",
      "outputs": [],
      "stateMutability": "nonpayable",
      "type": "function"
    },
    {
      "inputs": [],
      "name": "withdrawWithLimit",
      "outputs": [],
      "stateMutability": "nonpayable",
      "type": "function"
    },
    {
      "inputs": [],
      "name": "withdrawalLimit",
      "outputs": [
        {
          "internalType": "uint256",
          "name": "",
          "type": "uint256"
        }
      ],
      "stateMutability": "view",
      "type": "function"
    },
    {
      "inputs": [],
      "name": "withdrawalPerson",
      "outputs": [
        {
          "internalType": "address",
          "name": "",
          "type": "address"
        }
      ],
      "stateMutability": "view",
      "type": "function"
    }
  ],
  "bytecode": "0x60806040523480156200001157600080fd5b5060405162000ff938038062000ff9833981810160405281019062000037919062000110565b336000806101000a81548173ffffffffffffffffffffffffffffffffffffffff021916908373ffffffffffffffffffffffffffffffffffffffff16021790555081600160006101000a81548173ffffffffffffffffffffffffffffffffffffffff021916908373ffffffffffffffffffffffffffffffffffffffff160217905550806002819055506000600360006101000a81548160ff0219169083151502179055505050620001c3565b600081519050620000f3816200018f565b92915050565b6000815190506200010a81620001a9565b92915050565b600080604083850312156200012457600080fd5b60006200013485828601620000e2565b92505060206200014785828601620000f9565b9150509250929050565b60006200015e8262000165565b9050919050565b600073ffffffffffffffffffffffffffffffffffffffff82169050919050565b6000819050919050565b6200019a8162000151565b8114620001a657600080fd5b50565b620001b48162000185565b8114620001c057600080fd5b50565b610e2680620001d36000396000f3fe6080604052600436106100a75760003560e01c8063853828b611610064578063853828b6146101aa578063ac19ff3f146101c1578063b73dfadd146101d8578063cedb6f1b14610203578063e2c41dbc1461022e578063f5d9bd0e14610238576100a7565b806312065fe0146100ac57806329575f6a146100d757806349c7fbed146101025780635a0768ce1461012d5780636dfc0b93146101565780637ddfe78d1461017f575b600080fd5b3480156100b857600080fd5b506100c161024f565b6040516100ce9190610c65565b60405180910390f35b3480156100e357600080fd5b506100ec610257565b6040516100f99190610b4f565b60405180910390f35b34801561010e57600080fd5b5061011761027b565b6040516101249190610b4f565b60405180910390f35b34801561013957600080fd5b50610154600480360381019061014f9190610855565b6102a1565b005b34801561016257600080fd5b5061017d6004803603810190610178919061082c565b610354565b005b34801561018b57600080fd5b50610194610426565b6040516101a19190610c65565b60405180910390f35b3480156101b657600080fd5b506101bf61042c565b005b3480156101cd57600080fd5b506101d6610523565b005b3480156101e457600080fd5b506101ed6106bf565b6040516101fa9190610c65565b60405180910390f35b34801561020f57600080fd5b506102186106ff565b6040516102259190610b6a565b60405180910390f35b610236610712565b005b34801561024457600080fd5b5061024d610757565b005b600047905090565b60008054906101000a900473ffffffffffffffffffffffffffffffffffffffff1681565b600160009054906101000a900473ffffffffffffffffffffffffffffffffffffffff1681565b60008054906101000a900473ffffffffffffffffffffffffffffffffffffffff1673ffffffffffffffffffffffffffffffffffffffff163373ffffffffffffffffffffffffffffffffffffffff161461032f576040517f08c379a000000000000000000000000000000000000000000000000000000000815260040161032690610c25565b60405180910390fd5b806002819055506000600360006101000a81548160ff02191690831515021790555050565b60008054906101000a900473ffffffffffffffffffffffffffffffffffffffff1673ffffffffffffffffffffffffffffffffffffffff163373ffffffffffffffffffffffffffffffffffffffff16146103e2576040517f08c379a00000000000000000000000000000000000000000000000000000000081526004016103d990610c45565b60405180910390fd5b80600160006101000a81548173ffffffffffffffffffffffffffffffffffffffff021916908373ffffffffffffffffffffffffffffffffffffffff16021790555050565b60025481565b60008054906101000a900473ffffffffffffffffffffffffffffffffffffffff1673ffffffffffffffffffffffffffffffffffffffff163373ffffffffffffffffffffffffffffffffffffffff16146104ba576040517f08c379a00000000000000000000000000000000000000000000000000000000081526004016104b190610c05565b60405180910390fd5b60008054906101000a900473ffffffffffffffffffffffffffffffffffffffff1673ffffffffffffffffffffffffffffffffffffffff166108fc479081150290604051600060405180830381858888f19350505050158015610520573d6000803e3d6000fd5b50565b600160009054906101000a900473ffffffffffffffffffffffffffffffffffffffff1673ffffffffffffffffffffffffffffffffffffffff163373ffffffffffffffffffffffffffffffffffffffff16146105b3576040517f08c379a00000000000000000000000000000000000000000000000000000000081526004016105aa90610ba5565b60405180910390fd5b6000600360009054906101000a900460ff166105d1576002546105eb565b60646046476105e09190610cc2565b6105ea9190610c91565b5b905047811115610630576040517f08c379a000000000000000000000000000000000000000000000000000000000815260040161062790610bc5565b60405180910390fd5b60006002819055506000600360006101000a81548160ff021916908315150217905550600160009054906101000a900473ffffffffffffffffffffffffffffffffffffffff1673ffffffffffffffffffffffffffffffffffffffff166108fc829081150290604051600060405180830381858888f193505050501580156106bb573d6000803e3d6000fd5b5050565b6000600360009054906101000a900460ff16156106f65760646046476106e59190610cc2565b6106ef9190610c91565b90506106fc565b60025490505b90565b600360009054906101000a900460ff1681565b60003411610755576040517f08c379a000000000000000000000000000000000000000000000000000000000815260040161074c90610be5565b60405180910390fd5b565b60008054906101000a900473ffffffffffffffffffffffffffffffffffffffff1673ffffffffffffffffffffffffffffffffffffffff163373ffffffffffffffffffffffffffffffffffffffff16146107e5576040517f08c379a00000000000000000000000000000000000000000000000000000000081526004016107dc90610b85565b60405180910390fd5b6001600360006101000a81548160ff021916908315150217905550565b60008135905061081181610dc2565b92915050565b60008135905061082681610dd9565b92915050565b60006020828403121561083e57600080fd5b600061084c84828501610802565b91505092915050565b60006020828403121561086757600080fd5b600061087584828501610817565b91505092915050565b61088781610d1c565b82525050565b61089681610d2e565b82525050565b60006108a9602a83610c80565b91507f4f6e6c7920737570657241646d696e2063616e20656e61626c65206175746f6d60008301527f61746963206c696d6974000000000000000000000000000000000000000000006020830152604082019050919050565b600061090f602883610c80565b91507f4f6e6c79207769746864726177616c506572736f6e2063616e2077697468647260008301527f61772066756e64730000000000000000000000000000000000000000000000006020830152604082019050919050565b6000610975602083610c80565b91507f496e73756666696369656e742062616c616e636520696e20636f6e74726163746000830152602082019050919050565b60006109b5602883610c80565b91507f4465706f73697420616d6f756e74206d7573742062652067726561746572207460008301527f68616e207a65726f0000000000000000000000000000000000000000000000006020830152604082019050919050565b6000610a1b602f83610c80565b91507f4f6e6c7920737570657241646d696e2063616e2077697468647261772074686560008301527f20656e746972652062616c616e636500000000000000000000000000000000006020830152604082019050919050565b6000610a81602c83610c80565b91507f4f6e6c7920737570657241646d696e2063616e2073657420746865207769746860008301527f64726177616c206c696d697400000000000000000000000000000000000000006020830152604082019050919050565b6000610ae7602f83610c80565b91507f4f6e6c7920737570657241646d696e2063616e206368616e676520746865207760008301527f69746864726177616c506572736f6e00000000000000000000000000000000006020830152604082019050919050565b610b4981610d5a565b82525050565b6000602082019050610b64600083018461087e565b92915050565b6000602082019050610b7f600083018461088d565b92915050565b60006020820190508181036000830152610b9e8161089c565b9050919050565b60006020820190508181036000830152610bbe81610902565b9050919050565b60006020820190508181036000830152610bde81610968565b9050919050565b60006020820190508181036000830152610bfe816109a8565b9050919050565b60006020820190508181036000830152610c1e81610a0e565b9050919050565b60006020820190508181036000830152610c3e81610a74565b9050919050565b60006020820190508181036000830152610c5e81610ada565b9050919050565b6000602082019050610c7a6000830184610b40565b92915050565b600082825260208201905092915050565b6000610c9c82610d5a565b9150610ca783610d5a565b925082610cb757610cb6610d93565b5b828204905092915050565b6000610ccd82610d5a565b9150610cd883610d5a565b9250817fffffffffffffffffffffffffffffffffffffffffffffffffffffffffffffffff0483118215151615610d1157610d10610d64565b5b828202905092915050565b6000610d2782610d3a565b9050919050565b60008115159050919050565b600073ffffffffffffffffffffffffffffffffffffffff82169050919050565b6000819050919050565b7f4e487b7100000000000000000000000000000000000000000000000000000000600052601160045260246000fd5b7f4e487b7100000000000000000000000000000000000000000000000000000000600052601260045260246000fd5b610dcb81610d1c565b8114610dd657600080fd5b50565b610de281610d5a565b8114610ded57600080fd5b5056fea2646970667358221220ea857bc24218df93579dd3d8a4700a13157b0f22c60fa8b1dcf9442360fe773d64736f6c63430008000033",
  "linkReferences": {},
  "deployedLinkReferences": {}
}