{
  "_format": "hh-sol-artifact-1",
  "contractName": "CommentPayment",
  "sourceName": "contracts/CommentPayment.sol",
  "abi": [
    {
      "inputs": [
        {
          "internalType": "address",
          "name": "_authorizedChanger",
          "type": "address"
        }
      ],
      "stateMutability": "nonpayable",
      "type": "constructor"
    },
    {
      "inputs": [],
      "name": "authorizedChanger",
      "outputs": [
        {
          "internalType": "address",
          "name": "",
          "type": "address"
        }
      ],
      "stateMutability": "view",
      "type": "function"
    },
    {
      "inputs": [
        {
          "internalType": "address",
          "name": "",
          "type": "address"
        }
      ],
      "name": "balances",
      "outputs": [
        {
          "internalType": "uint256",
          "name": "",
          "type": "uint256"
        }
      ],
      "stateMutability": "view",
      "type": "function"
    },
    {
      "inputs": [
        {
          "internalType": "address",
          "name": "newChanger",
          "type": "address"
        }
      ],
      "name": "changeAuthorizedChanger",
      "outputs": [],
      "stateMutability": "nonpayable",
      "type": "function"
    },
    {
      "inputs": [
        {
          "internalType": "address",
          "name": "winner",
          "type": "address"
        }
      ],
      "name": "claimReward",
      "outputs": [],
      "stateMutability": "nonpayable",
      "type": "function"
    },
    {
      "inputs": [],
      "name": "getBalance",
      "outputs": [
        {
          "internalType": "uint256",
          "name": "",
          "type": "uint256"
        }
      ],
      "stateMutability": "view",
      "type": "function"
    },
    {
      "inputs": [],
      "name": "owner",
      "outputs": [
        {
          "internalType": "address",
          "name": "",
          "type": "address"
        }
      ],
      "stateMutability": "view",
      "type": "function"
    },
    {
      "inputs": [],
      "name": "payForComments",
      "outputs": [],
      "stateMutability": "payable",
      "type": "function"
    },
    {
      "inputs": [],
      "name": "powerUpComment",
      "outputs": [],
      "stateMutability": "payable",
      "type": "function"
    },
    {
      "inputs": [
        {
          "internalType": "address",
          "name": "",
          "type": "address"
        }
      ],
      "name": "premiumComments",
      "outputs": [
        {
          "internalType": "uint256",
          "name": "",
          "type": "uint256"
        }
      ],
      "stateMutability": "view",
      "type": "function"
    },
    {
      "inputs": [],
      "name": "withdraw",
      "outputs": [],
      "stateMutability": "nonpayable",
      "type": "function"
    }
  ],
  "bytecode": "0x608060405234801561001057600080fd5b50604051610bfd380380610bfd833981810160405281019061003291906100ce565b336000806101000a81548173ffffffffffffffffffffffffffffffffffffffff021916908373ffffffffffffffffffffffffffffffffffffffff16021790555080600160006101000a81548173ffffffffffffffffffffffffffffffffffffffff021916908373ffffffffffffffffffffffffffffffffffffffff16021790555050610140565b6000815190506100c881610129565b92915050565b6000602082840312156100e057600080fd5b60006100ee848285016100b9565b91505092915050565b600061010282610109565b9050919050565b600073ffffffffffffffffffffffffffffffffffffffff82169050919050565b610132816100f7565b811461013d57600080fd5b50565b610aae8061014f6000396000f3fe6080604052600436106100915760003560e01c806382de206e1161005957806382de206e1461015c5780638da5cb5b14610185578063b76c21c9146101b0578063d279c191146101ba578063dc1dfe03146101e357610091565b806312065fe01461009657806327e235e3146100c15780633ccfd60b146100fe5780634387a606146101155780634456c6c01461011f575b600080fd5b3480156100a257600080fd5b506100ab61020e565b6040516100b89190610974565b60405180910390f35b3480156100cd57600080fd5b506100e860048036038101906100e391906106e6565b610216565b6040516100f59190610974565b60405180910390f35b34801561010a57600080fd5b5061011361022e565b005b61011d610325565b005b34801561012b57600080fd5b50610146600480360381019061014191906106e6565b610420565b6040516101539190610974565b60405180910390f35b34801561016857600080fd5b50610183600480360381019061017e91906106e6565b610438565b005b34801561019157600080fd5b5061019a61050a565b6040516101a791906108b9565b60405180910390f35b6101b861052e565b005b3480156101c657600080fd5b506101e160048036038101906101dc91906106e6565b6105d1565b005b3480156101ef57600080fd5b506101f86106ab565b60405161020591906108b9565b60405180910390f35b600047905090565b60026020528060005260406000206000915090505481565b60008054906101000a900473ffffffffffffffffffffffffffffffffffffffff1673ffffffffffffffffffffffffffffffffffffffff163373ffffffffffffffffffffffffffffffffffffffff16146102bc576040517f08c379a00000000000000000000000000000000000000000000000000000000081526004016102b3906108f4565b60405180910390fd5b60008054906101000a900473ffffffffffffffffffffffffffffffffffffffff1673ffffffffffffffffffffffffffffffffffffffff166108fc479081150290604051600060405180830381858888f19350505050158015610322573d6000803e3d6000fd5b50565b6801158e460913d00000341015610371576040517f08c379a000000000000000000000000000000000000000000000000000000000815260040161036890610954565b60405180910390fd5b34600260003373ffffffffffffffffffffffffffffffffffffffff1673ffffffffffffffffffffffffffffffffffffffff16815260200190815260200160002060008282546103c091906109a0565b925050819055506005600360003373ffffffffffffffffffffffffffffffffffffffff1673ffffffffffffffffffffffffffffffffffffffff168152602001908152602001600020600082825461041791906109a0565b92505081905550565b60036020528060005260406000206000915090505481565b60008054906101000a900473ffffffffffffffffffffffffffffffffffffffff1673ffffffffffffffffffffffffffffffffffffffff163373ffffffffffffffffffffffffffffffffffffffff16146104c6576040517f08c379a00000000000000000000000000000000000000000000000000000000081526004016104bd90610934565b60405180910390fd5b80600160006101000a81548173ffffffffffffffffffffffffffffffffffffffff021916908373ffffffffffffffffffffffffffffffffffffffff16021790555050565b60008054906101000a900473ffffffffffffffffffffffffffffffffffffffff1681565b67016345785d8a0000341015610579576040517f08c379a000000000000000000000000000000000000000000000000000000000815260040161057090610914565b60405180910390fd5b34600260003373ffffffffffffffffffffffffffffffffffffffff1673ffffffffffffffffffffffffffffffffffffffff16815260200190815260200160002060008282546105c891906109a0565b92505081905550565b600160009054906101000a900473ffffffffffffffffffffffffffffffffffffffff1673ffffffffffffffffffffffffffffffffffffffff163373ffffffffffffffffffffffffffffffffffffffff1614610661576040517f08c379a0000000000000000000000000000000000000000000000000000000008152600401610658906108d4565b60405180910390fd5b8073ffffffffffffffffffffffffffffffffffffffff166108fc479081150290604051600060405180830381858888f193505050501580156106a7573d6000803e3d6000fd5b5050565b600160009054906101000a900473ffffffffffffffffffffffffffffffffffffffff1681565b6000813590506106e081610a61565b92915050565b6000602082840312156106f857600080fd5b6000610706848285016106d1565b91505092915050565b610718816109f6565b82525050565b600061072b60288361098f565b91507f4f6e6c7920617574686f72697a656420616464726573732063616e20636c616960008301527f6d207265776172640000000000000000000000000000000000000000000000006020830152604082019050919050565b600061079160178361098f565b91507f4f6e6c79206f776e65722063616e2077697468647261770000000000000000006000830152602082019050919050565b60006107d1601c8361098f565b91507f4d696e696d756d20302e3120646f6c6c617273207265717569726564000000006000830152602082019050919050565b6000610811602c8361098f565b91507f4f6e6c79206f776e65722063616e206368616e67652074686520617574686f7260008301527f697a6564206164647265737300000000000000000000000000000000000000006020830152604082019050919050565b6000610877601b8361098f565b91507f4d696e696d756d20323020646f6c6c61727320726571756972656400000000006000830152602082019050919050565b6108b381610a28565b82525050565b60006020820190506108ce600083018461070f565b92915050565b600060208201905081810360008301526108ed8161071e565b9050919050565b6000602082019050818103600083015261090d81610784565b9050919050565b6000602082019050818103600083015261092d816107c4565b9050919050565b6000602082019050818103600083015261094d81610804565b9050919050565b6000602082019050818103600083015261096d8161086a565b9050919050565b600060208201905061098960008301846108aa565b92915050565b600082825260208201905092915050565b60006109ab82610a28565b91506109b683610a28565b9250827fffffffffffffffffffffffffffffffffffffffffffffffffffffffffffffffff038211156109eb576109ea610a32565b5b828201905092915050565b6000610a0182610a08565b9050919050565b600073ffffffffffffffffffffffffffffffffffffffff82169050919050565b6000819050919050565b7f4e487b7100000000000000000000000000000000000000000000000000000000600052601160045260246000fd5b610a6a816109f6565b8114610a7557600080fd5b5056fea26469706673582212200ae53ac82d17a98baec415c9eb4d0d21a83f7de7a231e56385336de389e467dd64736f6c63430008000033",
  "linkReferences": {},
  "deployedLinkReferences": {}
}